{
  "address": "0x11C6847e1cDCa7BC3ae4212a585b68BBC15e7c46",
  "abi": [
    {
      "inputs": [],
      "stateMutability": "nonpayable",
      "type": "constructor"
    },
    {
      "inputs": [
        {
          "internalType": "uint256",
          "name": "id",
          "type": "uint256"
        },
        {
          "internalType": "uint256",
          "name": "quantity",
          "type": "uint256"
        }
      ],
      "name": "buyTicket",
      "outputs": [],
      "stateMutability": "payable",
      "type": "function"
    },
    {
      "inputs": [
        {
          "internalType": "string",
          "name": "name",
          "type": "string"
        },
        {
          "internalType": "uint256",
          "name": "date",
          "type": "uint256"
        },
        {
          "internalType": "uint256",
          "name": "price",
          "type": "uint256"
        },
        {
          "internalType": "uint256",
          "name": "ticketCount",
          "type": "uint256"
        }
      ],
      "name": "createEvent",
      "outputs": [],
      "stateMutability": "nonpayable",
      "type": "function"
    },
    {
      "inputs": [
        {
          "internalType": "uint256",
          "name": "",
          "type": "uint256"
        }
      ],
      "name": "events",
      "outputs": [
        {
          "internalType": "address",
          "name": "admin",
          "type": "address"
        },
        {
          "internalType": "string",
          "name": "name",
          "type": "string"
        },
        {
          "internalType": "uint256",
          "name": "date",
          "type": "uint256"
        },
        {
          "internalType": "uint256",
          "name": "price",
          "type": "uint256"
        },
        {
          "internalType": "uint256",
          "name": "ticketCount",
          "type": "uint256"
        },
        {
          "internalType": "uint256",
          "name": "ticketRemaining",
          "type": "uint256"
        }
      ],
      "stateMutability": "view",
      "type": "function"
    },
    {
      "inputs": [],
      "name": "nextId",
      "outputs": [
        {
          "internalType": "uint256",
          "name": "",
          "type": "uint256"
        }
      ],
      "stateMutability": "view",
      "type": "function"
    },
    {
      "inputs": [
        {
          "internalType": "uint256",
          "name": "eventId",
          "type": "uint256"
        },
        {
          "internalType": "uint256",
          "name": "quantity",
          "type": "uint256"
        },
        {
          "internalType": "address",
          "name": "to",
          "type": "address"
        }
      ],
      "name": "ticketTransfer",
      "outputs": [],
      "stateMutability": "nonpayable",
      "type": "function"
    },
    {
      "inputs": [
        {
          "internalType": "address",
          "name": "",
          "type": "address"
        },
        {
          "internalType": "uint256",
          "name": "",
          "type": "uint256"
        }
      ],
      "name": "tickets",
      "outputs": [
        {
          "internalType": "uint256",
          "name": "",
          "type": "uint256"
        }
      ],
      "stateMutability": "view",
      "type": "function"
    },
    {
      "inputs": [],
      "name": "withdraw",
      "outputs": [],
      "stateMutability": "nonpayable",
      "type": "function"
    }
  ],
  "transactionHash": "0xbb63438e4c0066dad9794ef6c7d1ef25fb6c4cbdf4820fc734e8707906d9ba78",
  "args": [],
  "numDeployments": 1,
  "solcInputHash": "2e8d55d7ff37c211868b91725698aa3c",
  "bytecode": "0x608060405234801561001057600080fd5b5033600360006101000a81548173ffffffffffffffffffffffffffffffffffffffff021916908373ffffffffffffffffffffffffffffffffffffffff160217905550611451806100616000396000f3fe6080604052600436106100705760003560e01c8063298ec2081161004e578063298ec208146101095780633ccfd60b1461012557806361b8ce8c1461013c578063dae7a13c1461016757610070565b80630374ab0b146100755780630b7914301461009e5780630dd75aa5146100e0575b600080fd5b34801561008157600080fd5b5061009c60048036038101906100979190610996565b6101a4565b005b3480156100aa57600080fd5b506100c560048036038101906100c09190610a1e565b610376565b6040516100d796959493929190610b2b565b60405180910390f35b3480156100ec57600080fd5b5061010760048036038101906101029190610bbf565b61045a565b005b610123600480360381019061011e9190610c12565b610673565b005b34801561013157600080fd5b5061013a61085b565b005b34801561014857600080fd5b506101516108c6565b60405161015e9190610c52565b60405180910390f35b34801561017357600080fd5b5061018e60048036038101906101899190610c6d565b6108cc565b60405161019b9190610c52565b60405180910390f35b4283426101b19190610cdc565b116101f1576040517f08c379a00000000000000000000000000000000000000000000000000000000081526004016101e890610d82565b60405180910390fd5b60008111610234576040517f08c379a000000000000000000000000000000000000000000000000000000000815260040161022b90610e14565b60405180910390fd5b6040518060c001604052803373ffffffffffffffffffffffffffffffffffffffff16815260200186868080601f016020809104026020016040519081016040528093929190818152602001838380828437600081840152601f19601f82011690508083019250505050505050815260200184815260200183815260200182815260200182815250600080600254815260200190815260200160002060008201518160000160006101000a81548173ffffffffffffffffffffffffffffffffffffffff021916908373ffffffffffffffffffffffffffffffffffffffff160217905550602082015181600101908161032b919061106f565b5060408201518160020155606082015181600301556080820151816004015560a082015181600501559050506002600081548092919061036a90611141565b91905055505050505050565b60006020528060005260406000206000915090508060000160009054906101000a900473ffffffffffffffffffffffffffffffffffffffff16908060010180546103bf90610e92565b80601f01602080910402602001604051908101604052809291908181526020018280546103eb90610e92565b80156104385780601f1061040d57610100808354040283529160200191610438565b820191906000526020600020905b81548152906001019060200180831161041b57829003601f168201915b5050505050908060020154908060030154908060040154908060050154905086565b82600080600083815260200190815260200160002060020154036104b3576040517f08c379a00000000000000000000000000000000000000000000000000000000081526004016104aa906111d5565b60405180910390fd5b8360008082815260200190815260200160002060020154421061050b576040517f08c379a000000000000000000000000000000000000000000000000000000000815260040161050290611241565b60405180910390fd5b83600160003373ffffffffffffffffffffffffffffffffffffffff1673ffffffffffffffffffffffffffffffffffffffff168152602001908152602001600020600087815260200190815260200160002054101561059e576040517f08c379a0000000000000000000000000000000000000000000000000000000008152600401610595906112ad565b60405180910390fd5b83600160003373ffffffffffffffffffffffffffffffffffffffff1673ffffffffffffffffffffffffffffffffffffffff168152602001908152602001600020600087815260200190815260200160002060008282546105fe91906112cd565b9250508190555083600160008573ffffffffffffffffffffffffffffffffffffffff1673ffffffffffffffffffffffffffffffffffffffff168152602001908152602001600020600087815260200190815260200160002060008282546106659190610cdc565b925050819055505050505050565b81600080600083815260200190815260200160002060020154036106cc576040517f08c379a00000000000000000000000000000000000000000000000000000000081526004016106c3906111d5565b60405180910390fd5b82600080828152602001908152602001600020600201544210610724576040517f08c379a000000000000000000000000000000000000000000000000000000000815260040161071b90611241565b60405180910390fd5b6000806000868152602001908152602001600020905083816003015461074a9190611301565b341461078b576040517f08c379a00000000000000000000000000000000000000000000000000000000081526004016107829061138f565b60405180910390fd5b83816005015410156107d2576040517f08c379a00000000000000000000000000000000000000000000000000000000081526004016107c9906113fb565b60405180910390fd5b838160050160008282546107e691906112cd565b9250508190555083600160003373ffffffffffffffffffffffffffffffffffffffff1673ffffffffffffffffffffffffffffffffffffffff1681526020019081526020016000206000878152602001908152602001600020600082825461084d9190610cdc565b925050819055505050505050565b600360009054906101000a900473ffffffffffffffffffffffffffffffffffffffff1673ffffffffffffffffffffffffffffffffffffffff166108fc479081150290604051600060405180830381858888f193505050501580156108c3573d6000803e3d6000fd5b50565b60025481565b6001602052816000526040600020602052806000526040600020600091509150505481565b600080fd5b600080fd5b600080fd5b600080fd5b600080fd5b60008083601f8401126109205761091f6108fb565b5b8235905067ffffffffffffffff81111561093d5761093c610900565b5b60208301915083600182028301111561095957610958610905565b5b9250929050565b6000819050919050565b61097381610960565b811461097e57600080fd5b50565b6000813590506109908161096a565b92915050565b6000806000806000608086880312156109b2576109b16108f1565b5b600086013567ffffffffffffffff8111156109d0576109cf6108f6565b5b6109dc8882890161090a565b955095505060206109ef88828901610981565b9350506040610a0088828901610981565b9250506060610a1188828901610981565b9150509295509295909350565b600060208284031215610a3457610a336108f1565b5b6000610a4284828501610981565b91505092915050565b600073ffffffffffffffffffffffffffffffffffffffff82169050919050565b6000610a7682610a4b565b9050919050565b610a8681610a6b565b82525050565b600081519050919050565b600082825260208201905092915050565b60005b83811015610ac6578082015181840152602081019050610aab565b60008484015250505050565b6000601f19601f8301169050919050565b6000610aee82610a8c565b610af88185610a97565b9350610b08818560208601610aa8565b610b1181610ad2565b840191505092915050565b610b2581610960565b82525050565b600060c082019050610b406000830189610a7d565b8181036020830152610b528188610ae3565b9050610b616040830187610b1c565b610b6e6060830186610b1c565b610b7b6080830185610b1c565b610b8860a0830184610b1c565b979650505050505050565b610b9c81610a6b565b8114610ba757600080fd5b50565b600081359050610bb981610b93565b92915050565b600080600060608486031215610bd857610bd76108f1565b5b6000610be686828701610981565b9350506020610bf786828701610981565b9250506040610c0886828701610baa565b9150509250925092565b60008060408385031215610c2957610c286108f1565b5b6000610c3785828601610981565b9250506020610c4885828601610981565b9150509250929050565b6000602082019050610c676000830184610b1c565b92915050565b60008060408385031215610c8457610c836108f1565b5b6000610c9285828601610baa565b9250506020610ca385828601610981565b9150509250929050565b7f4e487b7100000000000000000000000000000000000000000000000000000000600052601160045260246000fd5b6000610ce782610960565b9150610cf283610960565b9250828201905080821115610d0a57610d09610cad565b5b92915050565b7f6576656e742063616e206f6e6c79206f7267616e697a6520696e20746865206660008201527f7574757265000000000000000000000000000000000000000000000000000000602082015250565b6000610d6c602583610a97565b9150610d7782610d10565b604082019050919050565b60006020820190508181036000830152610d9b81610d5f565b9050919050565b7f63616e206f6e6c7920637265617465206576656e742077697468206174206c6560008201527f617374206f6e65207469636b657420617661696c61626c650000000000000000602082015250565b6000610dfe603883610a97565b9150610e0982610da2565b604082019050919050565b60006020820190508181036000830152610e2d81610df1565b9050919050565b7f4e487b7100000000000000000000000000000000000000000000000000000000600052604160045260246000fd5b7f4e487b7100000000000000000000000000000000000000000000000000000000600052602260045260246000fd5b60006002820490506001821680610eaa57607f821691505b602082108103610ebd57610ebc610e63565b5b50919050565b60008190508160005260206000209050919050565b60006020601f8301049050919050565b600082821b905092915050565b600060088302610f257fffffffffffffffffffffffffffffffffffffffffffffffffffffffffffffffff82610ee8565b610f2f8683610ee8565b95508019841693508086168417925050509392505050565b6000819050919050565b6000610f6c610f67610f6284610960565b610f47565b610960565b9050919050565b6000819050919050565b610f8683610f51565b610f9a610f9282610f73565b848454610ef5565b825550505050565b600090565b610faf610fa2565b610fba818484610f7d565b505050565b5b81811015610fde57610fd3600082610fa7565b600181019050610fc0565b5050565b601f82111561102357610ff481610ec3565b610ffd84610ed8565b8101602085101561100c578190505b61102061101885610ed8565b830182610fbf565b50505b505050565b600082821c905092915050565b600061104660001984600802611028565b1980831691505092915050565b600061105f8383611035565b9150826002028217905092915050565b61107882610a8c565b67ffffffffffffffff81111561109157611090610e34565b5b61109b8254610e92565b6110a6828285610fe2565b600060209050601f8311600181146110d957600084156110c7578287015190505b6110d18582611053565b865550611139565b601f1984166110e786610ec3565b60005b8281101561110f578489015182556001820191506020850194506020810190506110ea565b8683101561112c5784890151611128601f891682611035565b8355505b6001600288020188555050505b505050505050565b600061114c82610960565b91507fffffffffffffffffffffffffffffffffffffffffffffffffffffffffffffffff820361117e5761117d610cad565b5b600182019050919050565b7f74686973206576656e7420646f6573206e6f7420657869737400000000000000600082015250565b60006111bf601983610a97565b91506111ca82611189565b602082019050919050565b600060208201905081810360008301526111ee816111b2565b9050919050565b7f74686973206576656e74206973206e6f742061637469766520616e796d6f7265600082015250565b600061122b602083610a97565b9150611236826111f5565b602082019050919050565b6000602082019050818103600083015261125a8161121e565b9050919050565b7f6e6f7420656e6f756768207469636b6574730000000000000000000000000000600082015250565b6000611297601283610a97565b91506112a282611261565b602082019050919050565b600060208201905081810360008301526112c68161128a565b9050919050565b60006112d882610960565b91506112e383610960565b92508282039050818111156112fb576112fa610cad565b5b92915050565b600061130c82610960565b915061131783610960565b925082820261132581610960565b9150828204841483151761133c5761133b610cad565b5b5092915050565b7f6e6f7420656e6f7567682065746865722073656e740000000000000000000000600082015250565b6000611379601583610a97565b915061138482611343565b602082019050919050565b600060208201905081810360008301526113a88161136c565b9050919050565b7f6e6f7420656e6f756768207469636b6574206c65667400000000000000000000600082015250565b60006113e5601683610a97565b91506113f0826113af565b602082019050919050565b60006020820190508181036000830152611414816113d8565b905091905056fea2646970667358221220a3339052243bfb4132ba8a6cff7f241bcc423a7ad3addce5574d64a98ec264d064736f6c63430008110033",
  "devdoc": {
    "kind": "dev",
    "methods": {},
    "version": 1
  },
  "userdoc": {
    "kind": "user",
    "methods": {},
    "version": 1
  },
  "storageLayout": {
    "storage": [
      {
        "astId": 19,
        "contract": "contracts/EventContract.sol:EventContract",
        "label": "events",
        "offset": 0,
        "slot": "0",
        "type": "t_mapping(t_uint256,t_struct(Event)14_storage)"
      },
      {
        "astId": 25,
        "contract": "contracts/EventContract.sol:EventContract",
        "label": "tickets",
        "offset": 0,
        "slot": "1",
        "type": "t_mapping(t_address,t_mapping(t_uint256,t_uint256))"
      },
      {
        "astId": 27,
        "contract": "contracts/EventContract.sol:EventContract",
        "label": "nextId",
        "offset": 0,
        "slot": "2",
        "type": "t_uint256"
      },
      {
        "astId": 29,
        "contract": "contracts/EventContract.sol:EventContract",
        "label": "owner",
        "offset": 0,
        "slot": "3",
        "type": "t_address_payable"
      }
    ],
    "types": {
      "t_address": {
        "encoding": "inplace",
        "label": "address",
        "numberOfBytes": "20"
      },
      "t_address_payable": {
        "encoding": "inplace",
        "label": "address payable",
        "numberOfBytes": "20"
      },
      "t_mapping(t_address,t_mapping(t_uint256,t_uint256))": {
        "encoding": "mapping",
        "key": "t_address",
        "label": "mapping(address => mapping(uint256 => uint256))",
        "numberOfBytes": "32",
        "value": "t_mapping(t_uint256,t_uint256)"
      },
      "t_mapping(t_uint256,t_struct(Event)14_storage)": {
        "encoding": "mapping",
        "key": "t_uint256",
        "label": "mapping(uint256 => struct EventContract.Event)",
        "numberOfBytes": "32",
        "value": "t_struct(Event)14_storage"
      },
      "t_mapping(t_uint256,t_uint256)": {
        "encoding": "mapping",
        "key": "t_uint256",
        "label": "mapping(uint256 => uint256)",
        "numberOfBytes": "32",
        "value": "t_uint256"
      },
      "t_string_storage": {
        "encoding": "bytes",
        "label": "string",
        "numberOfBytes": "32"
      },
      "t_struct(Event)14_storage": {
        "encoding": "inplace",
        "label": "struct EventContract.Event",
        "members": [
          {
            "astId": 3,
            "contract": "contracts/EventContract.sol:EventContract",
            "label": "admin",
            "offset": 0,
            "slot": "0",
            "type": "t_address"
          },
          {
            "astId": 5,
            "contract": "contracts/EventContract.sol:EventContract",
            "label": "name",
            "offset": 0,
            "slot": "1",
            "type": "t_string_storage"
          },
          {
            "astId": 7,
            "contract": "contracts/EventContract.sol:EventContract",
            "label": "date",
            "offset": 0,
            "slot": "2",
            "type": "t_uint256"
          },
          {
            "astId": 9,
            "contract": "contracts/EventContract.sol:EventContract",
            "label": "price",
            "offset": 0,
            "slot": "3",
            "type": "t_uint256"
          },
          {
            "astId": 11,
            "contract": "contracts/EventContract.sol:EventContract",
            "label": "ticketCount",
            "offset": 0,
            "slot": "4",
            "type": "t_uint256"
          },
          {
            "astId": 13,
            "contract": "contracts/EventContract.sol:EventContract",
            "label": "ticketRemaining",
            "offset": 0,
            "slot": "5",
            "type": "t_uint256"
          }
        ],
        "numberOfBytes": "192"
      },
      "t_uint256": {
        "encoding": "inplace",
        "label": "uint256",
        "numberOfBytes": "32"
      }
    }
  }
}